:1000000012C02CC02BC02AC029C028C027C026C0BF
:1000100040C024C023C022C021C020C01FC01EC0B9
:100020001DC01CC01BC011241FBECFE5D4E0DEBF25
:10003000CDBF10E0A0E6B0E0EAE0F1E002C005903C
:100040000D92A03FB107D9F720E0A0EFB0E001C0CA
:100050001D92A13FB207E1F702D055C0D1CF8FEF7B
:1000600084BB81BB85BB97E092BB8DBD80EF8CBD0F
:100070001FBC85E08EBD84E089BF7894FFCF282F18
:100080002F7325BB26E0969587952A95E1F782BBCD
:1000900008951F920F920FB60F9211242F933F9342
:1000A0004F935F936F937F938F939F93AF93BF9380
:1000B000EF93FF93E091F000F0E0EE0FFF1FE05AA6
:1000C000FF4F80819181DBDF8091F0008F5F88346A
:1000D00019F08093F00002C01092F0008FEF8DBDF8
:1000E00080EF8CBDFF91EF91BF91AF919F918F9168
:1000F0007F916F915F914F913F912F910F900FBE24
:0A0100000F901F901895F894FFCFA0
:10010A00FF08FF08FF08FF08FF08FF08FF080000B4
:10011A00FE04110411041104E10400007E04910498
:10012A00910491040E040000FF021102110211024F
:10013A000E0200000E0211021102FF02000000006E
:10014A007008FC08FE08FF08FF08FE08FC0878088B
:10015A0000000000FE04110411041104E10400006F
:10016A007002880288028802FF0200007002880278
:10017A0088028802FF0200007E049104910491041F
:10018A008F0400000000FF04100410041004FF0490
:00000001FF
